S113E0001089012310990110A99F012310B901233C
S113E010118B23119B0111AB9F012311BB01231110
S113E020CB2311DB0111EB9F012311FB0123108B87
S113E0300123109B0110AB9F012310BB0123104847
S113E0401047104F114F115F105F1181231191017F
S113E05011A19F012311B1012311C12311D1011178
S113E060E19F012311F1012310810123109101107B
S113E070A19F012310B101231043114311531053E5
S113E080104A114A115A105A118D23119D0111ADD4
S113E0909F012311BD0123118E0123119E0111AE95
S113E0A09F012311BE01231088012310980110A899
S113E0B09F012310B80123104C114C115C105C110A
S113E0C0862311960111A69F012311B6012311C6BF
S113E0D02311D60111E69F012311F60123CD00007F
S113E0E0012310DC0110EC9F012310FC0123108696
S113E0F0012310960110A69F012310B60123113DA0
S113E10023113D01113D2310441054118F0123119B
S113E1109F0111AF9F012311BF01231040108A01F9
S113E12023109A0110AA9F012310BA01231038105A
S113E1303A1039103B1049105910461056108201FC
S113E1402310920110A29F012310B20123141197EE
S113E1500111A79F012311B7012311D70111E79FD3
S113E160012311F7012310DD0110ED9F012310FDA0
S113E170012310DF0110EF9F012310FF01231097EB
S113E1800110A79F012310B70123118023119001CF
S113E19011A09F012311B0012311C02311D001113B
S113E1A0E09F012311F001236B3F44104D114D11E9
S113E1B05D105D1130442311314423113244231185
S10EE1C033442311344423113544235D
S9030000FC
