S113E0001089012310990110A99F012310B901233C
S113E010118B23119B0111AB9F012311BB01231110
S113E020CB2311DB0111EB9F012311FB0123108B87
S113E0300123109B0110AB9F012310BB0123623FFE
S113E04044027F23103401103423103445103489E2
S113E0501034AB10341010481047104F114F115F9B
S113E060105F11812311910111A19F012311B101AD
S113E0702311C12311D10111E19F012311F10123C6
S113E0801081012310910110A19F012310B10123DC
S113E0901043114311531053104A114A115A105A84
S113E0A0118D23119D0111AD9F012311BD01231178
S113E0B08E0123119E0111AE9F012311BE01236520
S113E0C03F441088012310980110A89F012310B821
S113E0D001231036011036231036451036891036C8
S113E0E0AB1036101E011E231E451E891EAB1E10CA
S113E0F0104C114C115C105CEC90ECB010AE901014
S113E100AEB0ECB0EC91ECB110AE9110AEB1EC92BB
S113E110ECB210AE9210AEB2EC90EC93ECB310AE45
S113E1209310AEB311862311960111A69F012311FA
S113E130B6012311C62311D60111E69F012311F65E
S113E1400123CD0123456710DC0110EC9F0123104E
S113E150FC012310A69010A6B010A6B010A6911032
S113E160A6B110A69210A6B210A69010A69310A65F
S113E170B31086012310960110A69F012310B60147
S113E18023113D23113D01113D23CD000001231036
S113E190DC0110EC9F012310FC01231048104410F3
S113E1A054118F0123119F0111AF9F012311BF014E
S113E1B023104061C044108A0123109A0110AA9FC1
S113E1C0012310BA012310350110352310354510F1
S113E1D035891035AB1035101038103A1039103B12
S113E1E01049105910461056108201231092011044
S113E1F0A29F012310B201231033011033231033E3
S113E200451033891033AB103310141137653F11A7
S113E210970111A79F012311B7012311D70111E71A
S113E2209F012311F7012310DD0110ED9F0123103D
S113E230FD012310DF0110EF9F012310FF012310C4
S113E240970110A79F012310B70123118023119078
S113E2500111A09F012311B0012311C02311D0018A
S113E26011E09F012311F001231032011032231019
S113E27032451032891032AB103210113812113974
S113E28034113B231F011F231F451F891FAB1F1080
S113E2906B3F446B23460B4602104D114D115D102C
S113E2A05D1130442311314423113244231133448A
S113E2B0231134442311354423113669401137693D
S104E2C04019
S9030000FC
