S113E0001089012310990110A99F012310B901233C
S113E010118B23119B0111AB9F012311BB01231110
S113E020CB2311DB0111EB9F012311FB0123108B87
S113E0300123109B0110AB9F012310BB0123623FFE
S113E04044027F23103401103423103445103489E2
S113E0501034AB10341010481047104F114F115F9B
S113E060105F11812311910111A19F012311B101AD
S113E0702311C12311D10111E19F012311F10123C6
S113E0801081012310910110A19F012310B10123DC
S113E0901043114311531053104A114A115A105A84
S113E0A0118D23119D0111AD9F012311BD01231178
S113E0B08E0123119E0111AE9F012311BE01236520
S113E0C03F44057F231088012310980110A89F0165
S113E0D02310B801231036011036231036451036AC
S113E0E0891036AB1036101E011E231E451E891ED4
S113E0F0AB1E10104C114C115C105CEC90ECB01089
S113E100AE9010AEB0ECB0EC91ECB110AE9110AE9C
S113E110B1EC92ECB210AE9210AEB2EC90EC93EC87
S113E120B310AE9310AEB311862311960111A69FBE
S113E130012311B6012311C62311D60111E69F0153
S113E1402311F60123CD0123456710DC0110EC9F58
S113E150012310FC012310A69010A6B010A6B01045
S113E160A69110A6B110A69210A6B210A69010A661
S113E1709310A6B31086012310960110A69F0123C5
S113E18010B60123113D23113D01113D23CD0000A3
S113E190012310DC0110EC9F012310FC0123104823
S113E1A010441054118F0123119F0111AF9F0123BB
S113E1B011BF0123104061C044017F23108A012351
S113E1C0109A0110AA9F012310BA012310350110DF
S113E1D035231035451035891035AB1035101038FE
S113E1E0103A1039103B104910591046105610823D
S113E1F0012310920110A29F012310B201231033B6
S113E200011033231033451033891033AB1033100E
S113E210141137653F11970111A79F012311B7010D
S113E2202311D70111E79F012311F7012310DD0109
S113E23010ED9F012310FD012310DF0110EF9F015A
S113E2402310FF012310970110A79F012310B7018A
S113E2502311802311900111A09F012311B00123E8
S113E26011C02311D00111E09F012311F0012310EB
S113E27032011032231032451032891032AB103281
S113E28010113812113934113A01113B231F011FA7
S113E290231F451F891FAB1F106B3F440B46020B06
S113E2A07F23104D114D115D105D11304423113148
S113E2B044231132442311334423113444231135AC
S10DE2C04423113669401137694008
S9030000FC
